{
  "_format": "hh-sol-artifact-1",
  "contractName": "RentalAgreement",
  "sourceName": "contracts/RentalAgreement.sol",
  "abi": [
    {
      "inputs": [
        {
          "internalType": "address",
          "name": "_carListingAddress",
          "type": "address"
        }
      ],
      "stateMutability": "nonpayable",
      "type": "constructor"
    },
    {
      "inputs": [
        {
          "internalType": "uint256",
          "name": "_carId",
          "type": "uint256"
        },
        {
          "internalType": "uint256",
          "name": "_days",
          "type": "uint256"
        }
      ],
      "name": "rentCar",
      "outputs": [],
      "stateMutability": "payable",
      "type": "function"
    },
    {
      "inputs": [
        {
          "internalType": "uint256",
          "name": "",
          "type": "uint256"
        }
      ],
      "name": "rentals",
      "outputs": [
        {
          "internalType": "address",
          "name": "renter",
          "type": "address"
        },
        {
          "internalType": "uint256",
          "name": "carId",
          "type": "uint256"
        },
        {
          "internalType": "uint256",
          "name": "startDate",
          "type": "uint256"
        },
        {
          "internalType": "uint256",
          "name": "endDate",
          "type": "uint256"
        },
        {
          "internalType": "bool",
          "name": "isActive",
          "type": "bool"
        }
      ],
      "stateMutability": "view",
      "type": "function"
    },
    {
      "inputs": [
        {
          "internalType": "uint256",
          "name": "_rentalId",
          "type": "uint256"
        }
      ],
      "name": "stopRent",
      "outputs": [],
      "stateMutability": "nonpayable",
      "type": "function"
    }
  ],
  "bytecode": "0x608060405234801561001057600080fd5b5060405161077b38038061077b83398101604081905261002f91610054565b600080546001600160a01b0319166001600160a01b0392909216919091179055610084565b60006020828403121561006657600080fd5b81516001600160a01b038116811461007d57600080fd5b9392505050565b6106e8806100936000396000f3fe6080604052600436106100345760003560e01c80639ca0fc0d14610039578063af94a1d11461004e578063d80021dc146100a6575b600080fd5b61004c610047366004610487565b6100c6565b005b34801561005a57600080fd5b5061006e6100693660046104a9565b6102ea565b604080516001600160a01b03909616865260208601949094529284019190915260608301521515608082015260a00160405180910390f35b3480156100b257600080fd5b5061004c6100c13660046104a9565b610338565b600080546040516305e8be1960e41b8152600481018590526001600160a01b0390911690635e8be19090602401600060405180830381865afa158015610110573d6000803e3d6000fd5b505050506040513d6000823e601f3d908101601f191682016040526101389190810190610547565b905080606001516101885760405162461bcd60e51b815260206004820152601560248201527421b0b91034b9903737ba1030bb30b4b630b136329760591b60448201526064015b60405180910390fd5b818160400151610198919061066c565b34146101db5760405162461bcd60e51b815260206004820152601260248201527124b731b7b93932b1ba103830bcb6b2b73a1760711b604482015260640161017f565b60016040518060a00160405280336001600160a01b031681526020018581526020014281526020018462015180610212919061066c565b61021c9042610689565b815260016020918201819052835480820185556000948552828520845160059092020180546001600160a01b0319166001600160a01b0392831617815592840151918301919091556040808401516002840155606084015160038401556080909301516004928301805460ff1916911515919091179055925491516363fc6a2160e11b815290810186905291169063c7f8d44290602401600060405180830381600087803b1580156102cd57600080fd5b505af11580156102e1573d6000803e3d6000fd5b50505050505050565b600181815481106102fa57600080fd5b6000918252602090912060059091020180546001820154600283015460038401546004909401546001600160a01b0390931694509092909160ff1685565b60006001828154811061034d5761034d61069c565b6000918252602090912060059091020180549091506001600160a01b031633146103c45760405162461bcd60e51b815260206004820152602260248201527f4f6e6c79207468652072656e7465722063616e2073746f70207468652072656e6044820152613a1760f11b606482015260840161017f565b600481015460ff166104185760405162461bcd60e51b815260206004820152601860248201527f52656e7420697320616c72656164792073746f707065642e0000000000000000604482015260640161017f565b6004818101805460ff1916905560005460018301546040516363fc6a2160e11b8152928301526001600160a01b03169063c7f8d44290602401600060405180830381600087803b15801561046b57600080fd5b505af115801561047f573d6000803e3d6000fd5b505050505050565b6000806040838503121561049a57600080fd5b50508035926020909101359150565b6000602082840312156104bb57600080fd5b5035919050565b634e487b7160e01b600052604160045260246000fd5b6040516080810167ffffffffffffffff811182821017156104fb576104fb6104c2565b60405290565b604051601f8201601f1916810167ffffffffffffffff8111828210171561052a5761052a6104c2565b604052919050565b8051801515811461054257600080fd5b919050565b6000602080838503121561055a57600080fd5b825167ffffffffffffffff8082111561057257600080fd5b908401906080828703121561058657600080fd5b61058e6104d8565b82516001600160a01b03811681146105a557600080fd5b815282840151828111156105b857600080fd5b8301601f810188136105c957600080fd5b8051838111156105db576105db6104c2565b6105ed601f8201601f19168701610501565b9350808452888682840101111561060357600080fd5b60005b81811015610621578281018701518582018801528601610606565b506000868286010152505081848201526040830151604082015261064760608401610532565b60608201529695505050505050565b634e487b7160e01b600052601160045260246000fd5b808202811582820484141761068357610683610656565b92915050565b8082018082111561068357610683610656565b634e487b7160e01b600052603260045260246000fdfea26469706673582212207b852c0892ac3d368b87c52db0a4ab375a1d2d8093c95734885a6c0107205c2064736f6c63430008130033",
  "linkReferences": {},
  "deployedLinkReferences": {}
}