{
  "_format": "hh-sol-artifact-1",
  "contractName": "UserRegistration",
  "sourceName": "contracts/UserRegistration.sol",
  "abi": [
    {
      "anonymous": false,
      "inputs": [
        {
          "indexed": false,
          "internalType": "address",
          "name": "userAddress",
          "type": "address"
        },
        {
          "indexed": false,
          "internalType": "string",
          "name": "name",
          "type": "string"
        }
      ],
      "name": "UserRegistered",
      "type": "event"
    },
    {
      "inputs": [
        {
          "internalType": "string",
          "name": "_name",
          "type": "string"
        }
      ],
      "name": "registerUser",
      "outputs": [],
      "stateMutability": "nonpayable",
      "type": "function"
    },
    {
      "inputs": [
        {
          "internalType": "address",
          "name": "",
          "type": "address"
        }
      ],
      "name": "users",
      "outputs": [
        {
          "internalType": "address",
          "name": "walletAddress",
          "type": "address"
        },
        {
          "internalType": "string",
          "name": "name",
          "type": "string"
        },
        {
          "internalType": "bool",
          "name": "isRegistered",
          "type": "bool"
        }
      ],
      "stateMutability": "view",
      "type": "function"
    }
  ],
  "bytecode": "0x608060405234801561001057600080fd5b50610569806100206000396000f3fe608060405234801561001057600080fd5b50600436106100365760003560e01c8063704f1b941461003b578063a87430ba14610050575b600080fd5b61004e610049366004610261565b61007b565b005b61006361005e366004610312565b610193565b60405161007293929190610388565b60405180910390f35b3360009081526020819052604090206002015460ff16156100e25760405162461bcd60e51b815260206004820152601860248201527f5573657220616c726561647920726567697374657265642e0000000000000000604482015260640160405180910390fd5b60408051606081018252338082526020808301858152600184860181905260009384529183905293909120825181546001600160a01b0319166001600160a01b0390911617815592519192919082019061013c9082610447565b50604091820151600291909101805460ff1916911515919091179055517f48cac28ad4dc618e15f4c2dd5e97751182f166de97b25618318b2112aa951a2f906101889033908490610507565b60405180910390a150565b600060208190529081526040902080546001820180546001600160a01b0390921692916101bf906103be565b80601f01602080910402602001604051908101604052809291908181526020018280546101eb906103be565b80156102385780601f1061020d57610100808354040283529160200191610238565b820191906000526020600020905b81548152906001019060200180831161021b57829003601f168201915b5050506002909301549192505060ff1683565b634e487b7160e01b600052604160045260246000fd5b60006020828403121561027357600080fd5b813567ffffffffffffffff8082111561028b57600080fd5b818401915084601f83011261029f57600080fd5b8135818111156102b1576102b161024b565b604051601f8201601f19908116603f011681019083821181831017156102d9576102d961024b565b816040528281528760208487010111156102f257600080fd5b826020860160208301376000928101602001929092525095945050505050565b60006020828403121561032457600080fd5b81356001600160a01b038116811461033b57600080fd5b9392505050565b6000815180845260005b818110156103685760208185018101518683018201520161034c565b506000602082860101526020601f19601f83011685010191505092915050565b6001600160a01b03841681526060602082018190526000906103ac90830185610342565b90508215156040830152949350505050565b600181811c908216806103d257607f821691505b6020821081036103f257634e487b7160e01b600052602260045260246000fd5b50919050565b601f82111561044257600081815260208120601f850160051c8101602086101561041f5750805b601f850160051c820191505b8181101561043e5782815560010161042b565b5050505b505050565b815167ffffffffffffffff8111156104615761046161024b565b6104758161046f84546103be565b846103f8565b602080601f8311600181146104aa57600084156104925750858301515b600019600386901b1c1916600185901b17855561043e565b600085815260208120601f198616915b828110156104d9578886015182559484019460019091019084016104ba565b50858210156104f75787850151600019600388901b60f8161c191681555b5050505050600190811b01905550565b6001600160a01b038316815260406020820181905260009061052b90830184610342565b94935050505056fea2646970667358221220a082211fcd4b775cb2a7b742e52be19647826747fa8f603f5e1b48bf108ae1e764736f6c63430008130033",
  "linkReferences": {},
  "deployedLinkReferences": {}
}