{
  "_format": "hh-sol-artifact-1",
  "contractName": "CarListing",
  "sourceName": "contracts/CarListing.sol",
  "abi": [
    {
      "inputs": [
        {
          "internalType": "uint256",
          "name": "",
          "type": "uint256"
        }
      ],
      "name": "cars",
      "outputs": [
        {
          "internalType": "address",
          "name": "owner",
          "type": "address"
        },
        {
          "internalType": "string",
          "name": "model",
          "type": "string"
        },
        {
          "internalType": "uint256",
          "name": "pricePerDay",
          "type": "uint256"
        },
        {
          "internalType": "bool",
          "name": "isAvailable",
          "type": "bool"
        }
      ],
      "stateMutability": "view",
      "type": "function"
    },
    {
      "inputs": [
        {
          "internalType": "uint256",
          "name": "_carId",
          "type": "uint256"
        }
      ],
      "name": "getCar",
      "outputs": [
        {
          "components": [
            {
              "internalType": "address",
              "name": "owner",
              "type": "address"
            },
            {
              "internalType": "string",
              "name": "model",
              "type": "string"
            },
            {
              "internalType": "uint256",
              "name": "pricePerDay",
              "type": "uint256"
            },
            {
              "internalType": "bool",
              "name": "isAvailable",
              "type": "bool"
            }
          ],
          "internalType": "struct CarListing.Car",
          "name": "",
          "type": "tuple"
        }
      ],
      "stateMutability": "view",
      "type": "function"
    },
    {
      "inputs": [],
      "name": "getCarsCount",
      "outputs": [
        {
          "internalType": "uint256",
          "name": "",
          "type": "uint256"
        }
      ],
      "stateMutability": "view",
      "type": "function"
    },
    {
      "inputs": [
        {
          "internalType": "string",
          "name": "_model",
          "type": "string"
        },
        {
          "internalType": "uint256",
          "name": "_pricePerDay",
          "type": "uint256"
        }
      ],
      "name": "listCar",
      "outputs": [],
      "stateMutability": "nonpayable",
      "type": "function"
    },
    {
      "inputs": [
        {
          "internalType": "uint256",
          "name": "_carId",
          "type": "uint256"
        }
      ],
      "name": "toggleAvailability",
      "outputs": [],
      "stateMutability": "nonpayable",
      "type": "function"
    }
  ],
  "bytecode": "0x608060405234801561001057600080fd5b506107ee806100206000396000f3fe608060405234801561001057600080fd5b50600436106100575760003560e01c80635e8be1901461005c5780639075611614610085578063bd3d4dae1461009a578063c7f8d442146100ab578063f7746e36146100be575b600080fd5b61006f61006a3660046104a3565b6100e1565b60405161007c9190610502565b60405180910390f35b610098610093366004610568565b610258565b005b60005460405190815260200161007c565b6100986100b93660046104a3565b61032b565b6100d16100cc3660046104a3565b6103d1565b60405161007c949392919061061d565b610117604051806080016040528060006001600160a01b0316815260200160608152602001600081526020016000151581525090565b60005482106101635760405162461bcd60e51b815260206004820152601360248201527221b0b9103237b2b9903737ba1032bc34b9ba1760691b60448201526064015b60405180910390fd5b6000828154811061017657610176610659565b6000918252602091829020604080516080810190915260049092020180546001600160a01b0316825260018101805492939192918401916101b69061066f565b80601f01602080910402602001604051908101604052809291908181526020018280546101e29061066f565b801561022f5780601f106102045761010080835404028352916020019161022f565b820191906000526020600020905b81548152906001019060200180831161021257829003601f168201915b50505091835250506002820154602082015260039091015460ff16151560409091015292915050565b6040805160808101825233815260208101848152918101839052600160608201819052600080549182018155805281517f290decd9548b62a8d60345a988386fc84ba6bc95484008f6362f93160ef3e563600490920291820180546001600160a01b0319166001600160a01b0390921691909117815592519192917f290decd9548b62a8d60345a988386fc84ba6bc95484008f6362f93160ef3e5649091019061030290826106f8565b50604082015160028201556060909101516003909101805460ff19169115159190911790555050565b600080828154811061033f5761033f610659565b6000918252602090912060049091020180549091506001600160a01b031633146103bb5760405162461bcd60e51b815260206004820152602760248201527f4f6e6c7920746865206f776e65722063616e206368616e676520617661696c616044820152663134b634ba3c9760c91b606482015260840161015a565b600301805460ff19811660ff9091161517905550565b600081815481106103e157600080fd5b6000918252602090912060049091020180546001820180546001600160a01b039092169350906104109061066f565b80601f016020809104026020016040519081016040528092919081815260200182805461043c9061066f565b80156104895780601f1061045e57610100808354040283529160200191610489565b820191906000526020600020905b81548152906001019060200180831161046c57829003601f168201915b50505050600283015460039093015491929160ff16905084565b6000602082840312156104b557600080fd5b5035919050565b6000815180845260005b818110156104e2576020818501810151868301820152016104c6565b506000602082860101526020601f19601f83011685010191505092915050565b602080825282516001600160a01b0316828201528201516080604083015260009061053060a08401826104bc565b9050604084015160608401526060840151151560808401528091505092915050565b634e487b7160e01b600052604160045260246000fd5b6000806040838503121561057b57600080fd5b823567ffffffffffffffff8082111561059357600080fd5b818501915085601f8301126105a757600080fd5b8135818111156105b9576105b9610552565b604051601f8201601f19908116603f011681019083821181831017156105e1576105e1610552565b816040528281528860208487010111156105fa57600080fd5b826020860160208301376000602093820184015298969091013596505050505050565b6001600160a01b0385168152608060208201819052600090610641908301866104bc565b60408301949094525090151560609091015292915050565b634e487b7160e01b600052603260045260246000fd5b600181811c9082168061068357607f821691505b6020821081036106a357634e487b7160e01b600052602260045260246000fd5b50919050565b601f8211156106f357600081815260208120601f850160051c810160208610156106d05750805b601f850160051c820191505b818110156106ef578281556001016106dc565b5050505b505050565b815167ffffffffffffffff81111561071257610712610552565b61072681610720845461066f565b846106a9565b602080601f83116001811461075b57600084156107435750858301515b600019600386901b1c1916600185901b1785556106ef565b600085815260208120601f198616915b8281101561078a5788860151825594840194600190910190840161076b565b50858210156107a85787850151600019600388901b60f8161c191681555b5050505050600190811b0190555056fea26469706673582212208f7887744afa50a285744018883566798408c5d51f1e9f677372c915fc848f2364736f6c63430008130033",
  "linkReferences": {},
  "deployedLinkReferences": {}
}