{
  "_format": "hh-sol-artifact-1",
  "contractName": "PaymentEscrow",
  "sourceName": "contracts/PaymentEscrow.sol",
  "abi": [
    {
      "inputs": [
        {
          "internalType": "uint256",
          "name": "_feePercent",
          "type": "uint256"
        }
      ],
      "stateMutability": "nonpayable",
      "type": "constructor"
    },
    {
      "anonymous": false,
      "inputs": [
        {
          "indexed": false,
          "internalType": "uint256",
          "name": "escrowId",
          "type": "uint256"
        },
        {
          "indexed": false,
          "internalType": "uint256",
          "name": "amount",
          "type": "uint256"
        },
        {
          "indexed": true,
          "internalType": "address",
          "name": "payer",
          "type": "address"
        },
        {
          "indexed": true,
          "internalType": "address",
          "name": "payee",
          "type": "address"
        }
      ],
      "name": "EscrowCreated",
      "type": "event"
    },
    {
      "anonymous": false,
      "inputs": [
        {
          "indexed": false,
          "internalType": "uint256",
          "name": "escrowId",
          "type": "uint256"
        },
        {
          "indexed": false,
          "internalType": "uint256",
          "name": "amount",
          "type": "uint256"
        },
        {
          "indexed": true,
          "internalType": "address",
          "name": "payee",
          "type": "address"
        }
      ],
      "name": "EscrowReleased",
      "type": "event"
    },
    {
      "inputs": [
        {
          "internalType": "address",
          "name": "_payee",
          "type": "address"
        }
      ],
      "name": "createEscrow",
      "outputs": [
        {
          "internalType": "uint256",
          "name": "escrowId",
          "type": "uint256"
        }
      ],
      "stateMutability": "payable",
      "type": "function"
    },
    {
      "inputs": [
        {
          "internalType": "uint256",
          "name": "",
          "type": "uint256"
        }
      ],
      "name": "escrows",
      "outputs": [
        {
          "internalType": "uint256",
          "name": "amount",
          "type": "uint256"
        },
        {
          "internalType": "address",
          "name": "payer",
          "type": "address"
        },
        {
          "internalType": "address",
          "name": "payee",
          "type": "address"
        },
        {
          "internalType": "bool",
          "name": "isReleased",
          "type": "bool"
        }
      ],
      "stateMutability": "view",
      "type": "function"
    },
    {
      "inputs": [],
      "name": "feePercent",
      "outputs": [
        {
          "internalType": "uint256",
          "name": "",
          "type": "uint256"
        }
      ],
      "stateMutability": "view",
      "type": "function"
    },
    {
      "inputs": [],
      "name": "nextEscrowId",
      "outputs": [
        {
          "internalType": "uint256",
          "name": "",
          "type": "uint256"
        }
      ],
      "stateMutability": "view",
      "type": "function"
    },
    {
      "inputs": [],
      "name": "owner",
      "outputs": [
        {
          "internalType": "address",
          "name": "",
          "type": "address"
        }
      ],
      "stateMutability": "view",
      "type": "function"
    },
    {
      "inputs": [
        {
          "internalType": "uint256",
          "name": "_escrowId",
          "type": "uint256"
        }
      ],
      "name": "releaseEscrow",
      "outputs": [],
      "stateMutability": "nonpayable",
      "type": "function"
    },
    {
      "inputs": [
        {
          "internalType": "uint256",
          "name": "_feePercent",
          "type": "uint256"
        }
      ],
      "name": "setFeePercent",
      "outputs": [],
      "stateMutability": "nonpayable",
      "type": "function"
    }
  ],
  "bytecode": "0x608060405234801561001057600080fd5b5060405161066138038061066183398101604081905261002f91610049565b600080546001600160a01b03191633179055600155610062565b60006020828403121561005b57600080fd5b5051919050565b6105f0806100716000396000f3fe6080604052600436106100705760003560e01c806389cb29dd1161004e57806389cb29dd1461014a5780638da5cb5b14610160578063ed65316414610198578063f6a8419e146101b857600080fd5b8063012f52ee146100755780637ce3489b146101045780637fd6f15c14610126575b600080fd5b34801561008157600080fd5b506100c96100903660046104f0565b60026020819052600091825260409091208054600182015491909201546001600160a01b0391821691811690600160a01b900460ff1684565b6040516100fb94939291909384526001600160a01b039283166020850152911660408301521515606082015260800190565b60405180910390f35b34801561011057600080fd5b5061012461011f3660046104f0565b6101cb565b005b34801561013257600080fd5b5061013c60015481565b6040519081526020016100fb565b34801561015657600080fd5b5061013c60035481565b34801561016c57600080fd5b50600054610180906001600160a01b031681565b6040516001600160a01b0390911681526020016100fb565b3480156101a457600080fd5b506101246101b33660046104f0565b61023a565b61013c6101c6366004610509565b61040e565b6000546001600160a01b031633146102355760405162461bcd60e51b815260206004820152602260248201527f4f6e6c79206f776e65722063616e20706572666f726d2074686973206163746960448201526137b760f11b60648201526084015b60405180910390fd5b600155565b600081815260026020526040902060018101546001600160a01b031633146102a45760405162461bcd60e51b815260206004820152601d60248201527f4f6e6c792070617965722063616e2072656c6561736520657363726f77000000604482015260640161022c565b6002810154600160a01b900460ff16156103005760405162461bcd60e51b815260206004820152601760248201527f457363726f7720616c72656164792072656c6561736564000000000000000000604482015260640161022c565b600060646001548360000154610316919061054f565b610320919061056c565b90506000818360000154610334919061058e565b60028401805460ff60a01b198116600160a01b179091556040519192506001600160a01b03169082156108fc029083906000818181858888f19350505050158015610383573d6000803e3d6000fd5b50600080546040516001600160a01b039091169184156108fc02918591818181858888f193505050501580156103bd573d6000803e3d6000fd5b50600283015460408051868152602081018490526001600160a01b03909216917f42d6d6c9aab3e26747215559fd2bdd240720051c1a64bf30714611cd93939c7a910160405180910390a250505050565b60008034116104555760405162461bcd60e51b8152602060048201526013602482015272086c2dcdcdee840cae6c6e4deee4060408aa89606b1b604482015260640161022c565b60038054906000610465836105a1565b90915550600081815260026020818152604092839020348082556001820180546001600160a01b03199081163390811790925594830180546001600160a01b038b169616861790558551878152938401919091529495509391927fb0fa44dfa3cb5c65027b74c1ad128e8c4a851946eacdcf83e8223870c139ce70910160405180910390a350919050565b60006020828403121561050257600080fd5b5035919050565b60006020828403121561051b57600080fd5b81356001600160a01b038116811461053257600080fd5b9392505050565b634e487b7160e01b600052601160045260246000fd5b808202811582820484141761056657610566610539565b92915050565b60008261058957634e487b7160e01b600052601260045260246000fd5b500490565b8181038181111561056657610566610539565b6000600182016105b3576105b3610539565b506001019056fea264697066735822122041b342361a1b5e35cb7e3fdf30c757739d5c48c260901a9d88b5d0294eabe2c664736f6c63430008130033",
  "linkReferences": {},
  "deployedLinkReferences": {}
}